:020000040003F7
:10C00000103000206DC1030087C1030089C1030007
:10C010000000000000000000000000000000000020
:10C02000000000000000000000000000D5C0030078
:10C0300000000000000000008DC103008FC103005C
:10C0400091C1030091C1030091C1030091C103009C
:10C0500091C103000000000091C1030091C10300E1
:10C0600091C1030091C1030091C1030091C103007C
:10C0700091C1030091C1030091C1030091C103006C
:10C0800091C103000DC3030091C1030091C10300DE
:10C090002DC3030091C1030081C3030091C10300BC
:10C0A00091C1030091C103000000000000000000E6
:10C0B0000000000000000000000000000000000080
:10C0C0000348854600F0C0F80048004731E503000A
:10C0D000103000200648704502D1EFF3098101E0DD
:10C0E000EFF30881886902380078024A104700009F
:10C0F000FDFFFFFF6DC20300401E00BF00BF00BF79
:10C1000000BF00BF00BF00BF00BF00BF00BF00BF37
:10C1100000BFF1D170470000401E00BF00BF00BF4C
:10C1200000BF00BF00BF00BF00BF00BF00BF00BF17
:10C1300000BFF1D170470000056885F308884068AA
:10C14000FF2464B2EFF30585002D01D1A646004718
:10C150002546064621273FBAF0B4002400250026D4
:10C160000027F0B4F92040B200470000032109483D
:10C1700002680A430260084802680A4302600748EE
:10C18000804707480047FEE7FEE7FEE7FEE7FEE7D9
:10C19000FEE700002405004054050040A5C303004D
:10C1A000C1C0030030B50B46014600202022012407
:10C1B00009E00D46D5409D4205D31D469540491BDB
:10C1C0002546954040191546521E002DF1DC30BD24
:10C1D00003460B439B0703D009E008C9121F08C0A0
:10C1E000042AFAD203E00B780370401C491C521E4B
:10C1F000F9D27047D2B201E00270401C491EFBD256
:10C2000070470022F6E710B513460A460446194661
:10C21000FFF7F0FF204610BD30B50446002003466E
:10C2200000E05B1C934203D2E05CCD5C401BF8D085
:10C2300030BD0321001D401E037812021A43491E1F
:10C24000F9D5104670470000064C0125064E05E062
:10C25000E36807CC2B430C3C98471034B442F7D327
:10C26000FFF732FF98F20300B8F2030010B50C4656
:10C27000002802D00120086010BD2168002911D0DB
:10C280001048421A814212D03C2A0DD201223C3081
:10C290003C310B7803701346521C401E491E3C2B48
:10C2A000F7D904E00E200BE03C22FFF791FF0022BB
:10C2B0003C21044801F028F90249891E0880002029
:10C2C000206010BD827F00208307FF22DB0E9A4092
:10C2D0008907090E994000280BDA0007000F08387B
:10C2E000830808489B001818C36993430B43C36134
:10C2F0007047830804489B001B1818689043084344
:10C300001860704700ED00E000E400E010B5064959
:10C310000020086048608860C860034940390860B0
:10C32000486002F039FE10BD40110140FEB500200A
:10C33000C043124D02906869019068462E6901F071
:10C3400099FE074602F032F80446002F08D002AAF0
:10C350000199009801F0AEFE029802F071F806E033
:10C36000029802F06DF8002801D1002C02D030466E
:10C3700000F0FEFF00206871FEBD0000402000209C
:10C3800010B507484068002807D08047002803D030
:10C390000022114600F0FCF910BD01F08FFF10BD26
:10C3A000C820002010B501F0D7FF002805D01F4994
:10C3B0001D484860C8131E4988611E48018CC9B2D7
:10C3C00001290BD1828C120708D1028D1206120F9F
:10C3D000042A03D1828D1206120F0AD0012921D11D
:10C3E000818C09071ED1018D0906090F0A2904D085
:10C3F00007E0114A01219160F5E7828D1206120FC4
:10C4000005D00D290ED1808D0006000F0AD10B48F2
:10C410000168012904D00A49016001680129FCD1A1
:10C42000C021416110BD0000DFFF07C000050040D2
:10C43000006C0040C00F00F00006004000EC064019
:10C440007593000030B47446641E2578641CAB42BA
:10C4500000D21D46635D5B00E31830BC184702E064
:10C4600008C8121F08C1002AFAD17047704700207F
:10C4700001E001C1121F002AFBD17047F7B582B05D
:10C4800000260546167000781446002805D0284678
:10C49000039902F005F9060008D1A87800281ED0FB
:10C4A0002078039F001D1F2802D90C2005B0F0BD85
:10C4B000684679DF0028F9D121780322481C2070D2
:10C4C0007A5421781922481C20707A542078C11996
:10C4D0006846008802F0A0FD217840182070E878B6
:10C4E0000223002810D02078039A411C2170135495
:10C4F00020780399471C012227700A542078EA7893
:10C50000471C039927700A546868002815D0002139
:10C51000415620788C460246C01C03991F28C4D877
:10C52000501C20708B5422780A23501C20708B548E
:10C5300020786246431C23700A542889002809D0B9
:10C5400028460094062202210830039B02F0EAFDEF
:10C550000600ABD1288A002809D02846009407227B
:10C5600003211030039B02F0DDFD06009ED1288BD5
:10C57000002809D028460094152214211830039B66
:10C5800002F0D0FD060091D1286A002805D022468D
:10C59000039900F03FFF060088D1686A002805D0A3
:10C5A0002246039902F04AF8060084D12C20405D0F
:10C5B000002806D022462846039902F0ABFB06006D
:10C5C000C7D1304672E7000010B504460F488EB060
:10C5D0008179684681700E490180302101A8FFF7FA
:10C5E00010FE02216846017100218171C471012190
:10C5F00081810490002101A800F0BAFA002803D03C
:10C600000022114600F0C4F80EB010BD64260020D0
:10C6100030150000F0B5274C8BB0A078002837D13A
:10C6200018212548FFF7EDFD2046C078224C002553
:10C630000126002836D027464837009501950295F7
:10C6400010226946F81D0395FFF7E6FD002821D06A
:10C65000F81D089009976846067509A80490684671
:10C66000067708A806900420FFF7AEFF2570022089
:10C67000207204A8E0602820208265820E4873DFC3
:10C68000002803D00022114600F082F80948867085
:10C690000BB0F0BD0520FFF797FF2670676025728D
:10C6A0002582EAE70620FFF78FFF25706560257277
:10C6B000E1E70000A02000204C260020F0B5054650
:10C6C00008790E4685B081070CD003221146284612
:10C6D00000F0F4FB002803D00022114600F058F8C7
:10C6E00005B0F0BD2949009001F08EFD010011D187
:10C6F000264CB168143C009A6069FFF769FD009808
:10C7000001F050FD010005D16946204801F058FDB7
:10C71000010003D0284601F0C5F8E1E704200190AC
:10C720000098800802906069039001A801F084F8E5
:10C7300007000BD0092F10D0606901F0FDFC01004B
:10C7400002D0284601F0AEF83946E3E73079216996
:10C75000401820616069A061C2E730792169411801
:10C76000216160780028BBD06089401E0004000C65
:10C770006081B5D1284600F069FB002803D0002273
:10C78000114600F005F820896081A9E7B420002057
:10C79000BFF34F8F04490348C860BFF34F8F00BFFA
:10C7A000FDE700000400FA0500ED00E038B50C4696
:10C7B000E268064B92009D58097862680092024632
:10C7C00020460C306369A84738BD000028200020AF
:10C7D00070B50F4B05241D785E78AE4215D01D78DC
:10C7E0001C789E88B44201DA641C00E000241C70AE
:10C7F0005C88DE686C43A41904609B68E800C41878
:10C80000A4880C80185800241060204670BD0000D9
:10C8100030200020F7B53B4C82B060880F46814243
:10C820006ED80020694608703849374E4868C00500
:10C83000C00D18D0103840B2002807DA0207120FD6
:10C84000083A920892005118C96904E08108304AF8
:10C850008900891809688007C00EC1400806850F45
:10C86000012D01D10AE00425684636DF02280CD0EC
:10C87000002803D000221146FFF78AFF2278607853
:10C88000A188884203DA401C02E072B6F6E7002075
:10C89000C0B2904207D066786078884201DA401CC6
:10C8A00000E000206070012D0BD062B66846007871
:10C8B00037DF022805D0002803D000221146FFF7F9
:10C8C00067FF1148864219D0A068F50004994151CC
:10C8D000029900290CD0002F0AD060883A464643BE
:10C8E000E0683018FFF774FCA0682818878002E021
:10C8F000002128188180002005B0F0BD0420FBE74E
:10C900000920F9E730200020FFFF000000ED00E0E3
:10C9100000E400E00EB504E068468188029A0098C1
:10C92000904702AA01A96846FFF752FF0028F3D0FA
:10C930000EBD000030B5CB0008339DB29307002434
:10C94000002B01D0072030BD044B9A605219DA60E9
:10C950005C701C7058809980002030BD3020002011
:10C9600070B5114CA568002D06D0002A06D000280D
:10C9700004D00023247809E0082070BD072070BD92
:10C9800024265E43AE5D002E04D05B1CA342F7DB81
:10C99000042070BD242401265C432E556419617067
:10C9A000A2610360002070BD4020002010B5044645
:10C9B000082904D0002211461046FFF7E9FE21683D
:10C9C0006068884710BD00001CB501910090034AC3
:10C9D00008216846FFF71EFF1CBD0000ADC903001B
:10C9E000FFB59807002481B01E4615460F46002863
:10C9F0000BD1002E09D002F027F922490A9888614C
:10CA00000F70324600208E6008E0072005B0F0BDB0
:10CA100024234343D4549B181C75401CB842F7DBB5
:10CA200024204743BB19032048700F461846CB60AB
:10CA300019461830002218232E465E43D3005B1897
:10CA40001C705C709D7058603018521C032AF5DB16
:10CA50000020C0433861BC70FC7001240A482405E2
:10CA6000046003211420FFF72FFC08480460084CE1
:10CA70000198A06003211120FFF726FC606878610F
:10CA80000020C3E74020002080E200E000E100E059
:10CA900000150140FEB504461D48174682680D4644
:10CAA000002A0CD001788C4201D2052D01D207203A
:10CAB000FEBD214624235943535C012B01D008209D
:10CAC000FEBD8818407801281DD0002602F0EEFA3D
:10CAD000C0000F490190C9684018694602F010FB78
:10CAE000002812D0012101700A49446049680830C9
:10CAF000E2C007490198C96841180098487002F0DF
:10CB0000D9F90020FEBD2E46E0E70420FEBD00005E
:10CB10004020002000150140F8B5144D0446A868D7
:10CB2000002809D029788C4201D30720F8BD2421A0
:10CB30006143405C012801D00820F8BD02F0B6FA3C
:10CB4000C600E8686946301802F0DAFA00280AD010
:10CB5000022101704460E86831180098487002F0C2
:10CB6000A9F90020F8BD0420F8BD000040200020F5
:10CB700070B50C4692B000216A46117007251171FC
:10CB8000002809D0C17849070CD502A9FFF776FC27
:10CB9000002808D102AE00E00026002C0ED0E0787C
:10CBA000002802D0284612B070BD01AA0AA920466A
:10CBB000FFF764FC0028F6D10AAA00E000226846CC
:10CBC00003790178304672DFEDE7000070B5054665
:10CBD00001461C220F48FFF7FBFA0F4C0026267077
:10CBE0002968002907D00822A018FFF7F1FA20468B
:10CBF00008307ADF02E0084808307BDF002808D1DF
:10CC0000401E608004486670044A0021001DFFF742
:10CC1000A7FE70BDB82400200020002049F00300CA
:10CC2000F8B5224C028800271F4DE689102A16D03D
:10CC300029464968112A21D0122A2DD0502A1CD108
:10CC4000C288801DB24218D1028B022A15D1C27E41
:10CC5000837E10021843C007C00F0CD112E08188F8
:10CC6000698001461048082216311030FFF7B0FAEB
:10CC70006F70002E01D100F015FCF8BD0020C043FC
:10CC800068806F700846FFF747FF0028F5D0A1695C
:10CC90000029F2D08847F8BD811D034808221030D2
:10CCA000FFF796FAE7E7000000200020B8240020F4
:10CCB00010B502484068FFF72FFF10BD002000208C
:10CCC000F0B585B00A4605002DD02888184988425D
:10CCD0002BD018480078002827D0164C1020641C50
:10CCE0002070072060700127A77003216846018229
:10CCF0000026E11C104602F09EF901466846008AB3
:10CD00000918684601820096019602960396298AC0
:10CD100001808770868004A8039402902888694661
:10CD2000A6DF05B0F0BD0E20FBE70820F9E7000004
:10CD3000FFFF00001820002030B585B00D4604002C
:10CD400039D0002D37D06868002834D00020C04387
:10CD50001A4B20800FCB049301AB07C318486946D8
:10CD6000088001A8811E63DF002822D1221D6946A8
:10CD70000120A0DF00281CD168468078A0712046E1
:10CD800000F0BCFE002814D1204600F011FD002860
:10CD90000FD12946204600F035FF002809D16868E8
:10CDA000A062A868002800D0E0620649012008704F
:10CDB000002005B030BD0E20FBE7000028F2030084
:10CDC00030150000182000203EB5002828D000298A
:10CDD00026D0826A002A23D00A88102A21D0112A5C
:10CDE00030D0502A1FD0512A1AD10A460446891D34
:10CDF0000878022814D14888238A984210D1907A62
:10CE000004280DD006280BD0052809D02046891CFF
:10CE100001F056FD002803D0E16A002900D08847C0
:10CE20003EBD898810E0CB8802899342F8D1082260
:10CE30006B461A708A7F1A7120310291826A6946A4
:10CE400090473EBD0021C94301803EBDF0B585B08D
:10CE50000A46050029D028881649884227D0164856
:10CE60000078002823D0144C1120641C2070012766
:10CE7000684607820026611C104602F0DCF8014675
:10CE80006846008A09186846018200960196029653
:10CE90000396298A01808770868004A803940290F3
:10CEA00028886946A6DF05B0F0BD0E20FBE7082004
:10CEB000F9E70000FFFF00001820002030B585B022
:10CEC000002822D00388134CA34220D0124B1B7899
:10CED000002B1CD0104B10255B1C1D7059700024BA
:10CEE00001259A70032269460A82009401940294F3
:10CEF0000394028A0A808D708C8004A902910393A6
:10CF000000886946A6DF05B030BD0E20FBE708208B
:10CF1000F9E70000FFFF00001820002010B50446CC
:10CF2000FFF77EFE21460348FFF74EFF204601F043
:10CF300017FC10BD6426002010B51F4C86B01ECC17
:10CF400003946C460EC4002807D0684618DF0028FA
:10CF500003D000221146FFF71BFC0F20800313DFD4
:10CF6000002803D000221146FFF712FC134B482281
:10CF70001349082001F038FF002803D00022114691
:10CF8000FFF706FC00200490059001206946087414
:10CF900004A860DF002803D000221146FFF7F8FB49
:10CFA000084801F039FF002803D000221146FFF79E
:10CFB000EFFB06B010BD000018F20300D5ED030032
:10CFC00020230020ADEE030038B50068401C19D0C6
:10CFD0000024684600F05AF900980178012910D120
:10CFE000418800290AD0816803200003806800225C
:10CFF00000F08AFA00994988814201D1012400E0B9
:10D000000024204638BD000070B511DF002803D091
:10D0100000221146FFF7BCFB0F4900200A680E4BA7
:10D02000012180330C468440144204D0C506ED0E25
:10D030000C46AC401C60401C2028F3D3032424037E
:10D04000A06813DF002803D000221146FFF7A0FBE1
:10D05000A06800F017F970BD00E100E008B568466F
:10D0600000F014F900980178A52904D00079AA28C5
:10D0700001D0002008BD012008BD10B500F044FE1D
:10D08000002803D100F0F4FA00281BD0642001F03E
:10D090003DFB00F0FFFD002803D000221146FFF702
:10D0A00077FB00F031FE002803D000221146FFF785
:10D0B0006FFB00F0BDFA041E03D000221146FFF7FB
:10D0C00067FB204610BD000000B587B01422074959
:10D0D00001A8FFF77DF80598009001A80FC800F09F
:10D0E00013F802F083F8002007B000BD44F20300FB
:10D0F00010B500F021FC002805D100F017FF044610
:10D1000002F074F8204610BD0FB4F8B5684600F080
:10D11000BDF86846027E418B0123334CFF2533481E
:10D12000002A12D0012A16D0032A2AD00021022A6E
:10D1300036D0052A46D0042A4ED0062A01D1042032
:10D140002070F8BC08BC04B0184741800999816080
:10D150000370057110E04180089A07998918099AAF
:10D1600089188160A521017005710799C16008992E
:10D17000426101610A99816123701C4800F066F8E0
:10D18000DFE700990A7802704A88428089688160E6
:10D19000AA2101710799C1600899016109990BE001
:10D1A000009A1678A52E09D0067056884680926897
:10D1B00082600571C16001614161DDE7418081608C
:10D1C0000570F6E700F086FE002803D00022114625
:10D1D000FFF7DEFA0320B3E7418081600570009914
:10D1E00009790171C9E7000064200020C8250020EA
:10D1F0000EB5084A6B4607CA07C301F08DFC00282C
:10D2000006D1FF20044980024860684601F0A4FC72
:10D210000EBD000038F203006820002038B5044637
:10D22000684600F033F800980178217041886180E9
:10D230008168A16001792171C168E16001692161A2
:10D24000416961618069A06138BD000010B5044684
:10D250001C210B4801F056FC002803D00022114687
:10D26000FFF796FA00231C222146054801F088FCAE
:10D27000002803D000221146FFF78AFA10BD0000F3
:10D280006820002010B5FEF757FF10BD014901606E
:10D290007047000000FC030070B5174C182221787D
:10D2A0000F2051430A19154916795369121D4D680B
:10D2B000022E0ED0042E0BD1B006006981B21846A2
:10D2C000FEF770FF401928DF002801D10121A1706D
:10D2D00070BDA802556851692D1A0918926818186E
:10D2E000101801229202954202D2AA0829DFEBE728
:10D2F000FF22013229DFE7E7D4240020202000208C
:10D3000018225043054A0021801801718160416153
:10D31000022281610261C16070470000D4240020B4
:10D32000F8B5124C069E65780A2D1DD027787D1918
:10D33000EDB20A2D01D30A3DEDB218277D432D1918
:10D340002871AA6103C9EE60AB6069612861A178A8
:10D350000020002904D1FFF79FFF112800D10020F1
:10D360006178491C6170F8BD0420F8BDD424002008
:10D37000F8B5224801694A1C3DD0242251438268F5
:10D3800089184E681E494C6847690079E11B0D02F7
:10D390002D0AED1C002814D101201A4A0004506007
:10D3A000184A403A50601849400008601749086020
:10D3B0001749012008602F20FEF7AEFE0F4901201B
:10D3C0000871B54200D23546E81900020C49000A3E
:10D3D000403108600A494968001B091B0902090A13
:10D3E0000002000AC91C814204D9012006494004F8
:10D3F00080390860F8BD01F027FCF8BD402000200E
:10D40000001501404013014080E200E000E100E02F
:10D4100000100140F8B50D4611780646881D1446E7
:10D420001F2801D90C20F8BD33880720062BFAD31A
:10D430001927FF01BB4202D9164A9342F3D17288E1
:10D44000062AF0D3BA4202D9124FBA42EBD1114F99
:10D45000BB4203D0BA4201D09342E4D8481C052213
:10D4600020706A5420781222411C21702A5420789E
:10D470004119308801F0D0FD21784018C0B22070E9
:10D480004119708801F0C8FD2178401820700020F3
:10D49000F8BD0000FFFF000010B500221146FFF7A5
:10D4A00077F910BDF8B5164800F048FF144D002676
:10D4B000103D144C002807D0616900291BD00120C1
:10D4C0006A461070684615E02878002805D0616922
:10D4D000002910D0684606700CE0687800280CD04F
:10D4E000A16800226868FFF7D5FA002803D0A16977
:10D4F000002900D088472E70F8BD6168F1E7000070
:10D5000010200020B824002010B50446002A02D0C4
:10D510001088002210E00A48FBE7030A00020343D8
:10D52000A05C584003061B0F43401803584083B2C9
:10D530001806C00C5840521C8A42EED310BD0000A1
:10D54000FFFF000030B5164C87B01648E16801F0C7
:10D55000D9FA002803D000221146FFF719F9114823
:10D56000E268083841680023083001F009FB050033
:10D5700013D1142101A8FEF744FE00216846017171
:10D580000848243881886846C180E068049005987E
:10D59000009001A80FC8FFF7B7FD284607B030BDBF
:10D5A000E42500209420002000B587B003216846C0
:10D5B00001710B4881886846C1800A484168029120
:10D5C00081680391C0680490059800900A46049B06
:10D5D00002990198FFF798FD002007B000BD0000F8
:10D5E00070200020E425002000B587B001216846A6
:10D5F00001710D4881886846C1800320000380685E
:10D6000005900A484168029181680391C0680490BE
:10D61000059800900A46049B02990198FFF774FD53
:10D62000002007B000BD000070200020E42500208D
:10D6300000B58BB004A8FFF7F1FD089800280DD0C5
:10D64000079800280CD007990A98401801900021EB
:10D650000898009180080290684618DF0BB000BD62
:10D660000320000380680F218903091A4908ECE7A9
:10D6700000B58BB004A8FFF7D1FD0898002810D0A2
:10D680000F210798890300280DD0079A0A98019165
:10D690008018029003220898009280080390684640
:10D6A00018DF0BB000BD0320000380680A1A52087F
:10D6B000EDE7000070B505000BD000223C210B48BF
:10D6C000FFF722FF094CA41E2188884203D00B20BB
:10D6D00070BD0E2070BD3C2204492846FEF778FD3F
:10D6E0002088401C2080002070BD0000827F002028
:10D6F00070B515460A46032823D0042820D1144CBF
:10D70000002906D0E0881349884219D0132176DF1A
:10D7100010E0284600F010FD002803D0002211463A
:10D72000FFF736F8A069A8420AD1012203210A486E
:10D73000FFF7C4FB002803D000221146FFF728F8AA
:10D7400070BD0121104600F0EFFF02460121EEE717
:10D75000A0200020FFFF00006426002000B587B055
:10D760001422064901A8FEF733FD0598009001A890
:10D770000FC8FFF7C9FC07B000BD000058F2030056
:10D7800070471FB503230190900803900093029106
:10D79000684618DF04B010BD1FB501230190900842
:10D7A000039000930291684618DF04B010BD00009A
:10D7B00030B58FB005461C216846FEF722FD69464C
:10D7C0000878082108431022104369460870002495
:10D7D00001940394049405940694A87908A9887088
:10D7E000144869460884601C00070794000F0C77F2
:10D7F00010304877887FF9210840F721801C0840C5
:10D8000010430121084369468877142109A8FEF7CF
:10D81000F8FC08A8099007A80A9069468C8517208B
:10D82000CC8508860D942B46A888103309AAA2DF60
:10D830000FB030BD3115000070B5050004D0287A56
:10D84000800703D0102070BD0E2070BD144C60788E
:10D85000032803D0042801D0052801D0082070BD7A
:10D860006868E1688600A0688019884204D90020B1
:10D87000C043A0600C2070BD00F00CFB0028FAD162
:10D88000A9683246A368606901F07AF90028F2D1EC
:10D89000A1688919A160E2689142ECD0092070BDAD
:10D8A0007020002010B50A4604460321104600F0FF
:10D8B0003BFF024603212046FFF700FB002803D070
:10D8C00000221146FEF764FF10BD000010B50948A4
:10D8D0004178072901D0082010BD0069FFF71CF925
:10D8E000002803D000221146FEF752FF024880684C
:10D8F000804710BD702000203426002010B50D4C4C
:10D900006078052813D1E168A06888420FD106200D
:10D91000607000F0BFFA002808D16069E1684068D3
:10D9200000F098F8002801D10721617010BD08208F
:10D9300010BD0000702000203EB5204A6B4607CA8B
:10D9400007C31F4D0024AC702946AC8024316846C3
:10D9500001F002F9002801D06C703EBD0320184987
:10D96000000380682431486024390A46526ACA613B
:10D970000F218903091A490840181149114A1C311D
:10D9800048600F4800211030FEF7EAFF002803D05E
:10D9900000221146FEF7FCFE0F21002289042869AF
:10D9A000FFF778F8002803D000221146FEF7F0FEBA
:10D9B0000120AC60687000203EBD00006CF20300E6
:10D9C0007020002071DE030010B50A4C0820A16809
:10D9D000002900D010BD61780429FBD1A178064848
:10D9E00000F04AF8002802D00021A17010BD0521E6
:10D9F000617010BD70200020F4250020F8B5134C94
:10DA000007466078032804D0042804D00825284657
:10DA1000F8BD04206070A068002801D00820F8BD7F
:10DA200000F038FA0500FAD178688600A0788119EC
:10DA3000402901D90920F8BD054AB96810183246B5
:10DA4000FEF7C6FBA0788019A070E0E770200020E8
:10DA5000F425002010B50022FFF756FD054A517845
:10DA6000127809021143884201D00B2010BD00201A
:10DA700010BD00004026002070B500250C290ED3F3
:10DA800004464318008941000919581A0A38C2B2DD
:10DA90001648022A027002D30A318B4201D20920B1
:10DAA00070BD1348FEF794FB124913480A8882425E
:10DAB00002D02388934217D14988814202D06088DE
:10DAC000884211D10C4A0323521E20891B03A8420D
:10DAD0000AD9690009194989914203D09E896D1CB0
:10DAE000B142F4D1002070BD0B2070BD9C200020FD
:10DAF0004026002080100010FFFF000030B58FB0DE
:10DB000005461C216846FEF77CFB6946087804211F
:10DB10000843694608700024019403940494059412
:10DB20000694A87908A98870144869460884601C7E
:10DB300000070794000F0C77103048778A7FF92090
:10DB40000240F720921C0240EF20024001200243D5
:10DB50008A77142109A8FEF754FB08A8099007A8A2
:10DB60000A9069468C851420CC8508860D942B4636
:10DB7000A888083309AAA2DF0FB030BD3215000013
:10DB8000084910B508462438416102214170C16836
:10DB9000243000F0B7FF002803D000221146FEF722
:10DBA000F7FD10BD942000200B4910B508461C3825
:10DBB0004161022141700320000380680F21890325
:10DBC000081A4108044800F09DFF002803D00022F5
:10DBD0001146FEF7DDFD10BD8C2000200149886153
:10DBE000704700007020002000B587B0062069460D
:10DBF00008710598009001A80FC8FFF785FA07B0D3
:10DC000000BD0000F0B58FB00F4605461C216846E8
:10DC1000FEF7F7FA684601780226314301700024C6
:10DC200001940394049405940694A97908A881703A
:10DC3000174968460184601C0107090F68461031C6
:10DC4000079401770020014668464177817FF920DB
:10DC50000140F720891C0140EF20014001200143D1
:10DC600068468177142109A8FEF7CBFA08A8099025
:10DC700007A80A9068468685C48506860D972B46B8
:10DC8000A888203309AA6946A2DF0FB0F0BD0000C2
:10DC900034150000F0B589B06846FFF7BFFA039865
:10DCA00000282AD001210903069A4018904226D95B
:10DCB000501A45081046039A0C4687180246680019
:10DCC0001618001907900320000380680399884202
:10DCD0000DD2611908460422FFF75EFD00280CD121
:10DCE000214604220846FFF757FD002805D1BA1B3C
:10DCF0002B463046079900F033F809B0F0BD039A7F
:10DD00000698FFF749FDF8E730B58FB06846FFF792
:10DD100085FA0398002814D001210903069A4018B7
:10DD2000904214D9501A43081046039A5C00821896
:10DD30000019611803242403A468039DAC4202D295
:10DD40000E200FB030BD121A00F00AF8F9E70320D8
:10DD50000BAB07C3039880080E900BA818DFF0E701
:10DD6000F8B51C4617460D460646FFF70AFD002883
:10DD700017D001200003854207D92346291B301BF9
:10DD80001A46FFF7EDFF00280BD13A4629463046E8
:10DD9000FFF702FD002804D13A4629463046FFF736
:10DDA000F0FCF8BD70B54268254814685368916866
:10DDB000D26804604360C26081600078440701D586
:10DDC000840705D19C0703D18C0701D1940701D0AA
:10DDD000062070BD5B189A181A4D0F239B02EA604B
:10DDE000994213D81849194B194CC60709D08868AD
:10DDF000181A90420AD317482060174860601748E5
:10DE00000FE08968591A4908914201D20C2070BD6F
:10DE10001349216013496160800701D5124800E071
:10DE20001248A0606878012802D00826304670BDEC
:10DE300000F030F80600FAD12168E8688847F5E775
:10DE4000E4250020702000200030000000C0030006
:10DE50003426002081DB03005DD70300E9D50300F1
:10DE6000A9DB030081D70300A9D5030045D5030032
:10DE700000B5074987B00120087005206946087180
:10DE80000598009001A80FC8FFF73EF907B000BD44
:10DE90007020002010B50E4C2078002801D00820FA
:10DEA00010BD2069FEF738FE002803D0002211467D
:10DEB000FEF76EFC0F21002289042069FEF7EAFDBF
:10DEC000041E03D000221146FEF762FC204610BD5E
:10DED0007020002010B5134C01202070E0881249FA
:10DEE000884208D0132176DF002810D00022114686
:10DEF000FEF74EFC0BE0A078002808D074DF002865
:10DF000003D000221146FEF743FC0020A070FEF76C
:10DF1000CFFE002803D000221146FEF739FC002076
:10DF200010BD0000A0200020FFFF000030B5474DCD
:10DF300087B000242C702C71454800F035FF002874
:10DF40007DD14448FFF74AFE00F0E0F8002876D182
:10DF50004148FFF7AFFB002874D0684671DF002806
:10DF600003D000221146FEF713FC69464878401C96
:10DF70004870002070DF002803D000221146FEF711
:10DF800007FC112069460872062234A102A87CDF32
:10DF9000002803D000221146FEF7FAFB00940C2162
:10DFA00068460194018018214180FF2184809131CD
:10DFB000C1807ADF002803D000221146FEF7E8FB7B
:10DFC0000620694600940880264801902648029061
:10DFD00021483038FEF7B0FE002803D00022114659
:10DFE000FEF7D6FB1C216846FEF70BF91F4801908F
:10DFF0000120800302900094032168460173C481CC
:10E0000004741B48069005946846FEF7DFFD00285F
:10E0100003D000221146FEF7BBFB0C49E1221C3164
:10E020000878400840001040DF220C301040087093
:10E030000720487010208870FEF7ECFA002007B027
:10E0400030BDFFE70120E8709BE70000A020002022
:10E050001DCF0300F1D603009426002043686970A9
:10E0600070640000A9E9030091ED0300CD0C0000ED
:10E0700099D4030010B50E4900238A78CC78A242C7
:10E0800012D0521CD2B28A70022A00D18B708A78C8
:10E09000074B92001C339A5802604869101800021E
:10E0A000000A4861012010BD0360002010BD00007F
:10E0B00040200020F7B5144C0025A76823691EE016
:10E0C00024215943C9194E68864202D9301A486042
:10E0D00017E0801B751900264E600E750E699C4670
:10E0E0000B6AB646002E0AD0019E76193602360A11
:10E0F0008E607646CE6016680E6261461160591CCD
:10E10000DED12361FEBD0000402000200748002131
:10E1100001700848064A02608160C16001610822FE
:10E12000416142608161084670470000C1200020C3
:10E13000D0260020F0270020F0B5194A0646916845
:10E1400000292AD057691020791A4907490F146805
:10E150000B4624254D436519B54206D10124956926
:10E160008C4065400020956104E0491C4907490F37
:10E170008F42EED1491C4E07760F956901210C465E
:10E180009C4025420AD19368002B07D05B1E936008
:10E1900053685B1C53603346F1E70420F0BD000078
:10E1A000F0270020054A2423117C1268491E4907E4
:10E1B000490F59432031505000207047F02700206C
:10E1C00070B500281AD0002918D00E4AD368002B49
:10E1D00016D05B1ED360936824265B1C9360536942
:10E1E00015681C467343EE1820330660E858641C1B
:10E1F00008606007400F5061002070BD0E2070BDA8
:10E20000042070BDF027002010B500291DD0002289
:10E210000A60114A5368002B1BD0202817D85B1EB8
:10E220005360D0682423401CD060106914684343B5
:10E23000E3180B60012383409169401C1943400798
:10E24000400F91611061002010BD0E2010BD0C2008
:10E2500010BD042010BD0000F0270020FEB50446CC
:10E26000087982070ED08207920F04239B1A00229E
:10E27000154604E08E683554401CC0B2521C9A42C8
:10E28000F8D308710120009088680290087980080E
:10E2900001906846FFF7B2FB00280DD0022100F084
:10E2A00043FA024602212046FEF708FE002803D06A
:10E2B00000221146FEF76CFAFEBD0000F8B51E4CB8
:10E2C0002078002837D02069002807D00026E06891
:10E2D000002805D00025002E04D013E00126F6E723
:10E2E0000125F8E7684651DF052806D0002806D04A
:10E2F00000221146FEF74CFA04E0012602E02169F3
:10E3000000988847002D12D1608869460880A0686F
:10E3100061DF052806D0002806D000221146FEF74E
:10E3200037FA04E0012502E0E168A0688847002E82
:10E33000D8D0002DCFD0F8BDC82000204188054896
:10E340000288914204D34088814201D8012070475D
:10E3500000207047082000201048018CC9B2012914
:10E3600017D1818C090714D1018D09060A0F03D139
:10E37000828D1206120F0ED0090F012903D1828D52
:10E380001206120F07D0032903D1808D0006000F5B
:10E3900001D000207047012070470000C00F00F03E
:10E3A000800701D00020704701207047F8B523484E
:10E3B00001690091457833E02048E900C0680E18F3
:10E3C00034782AE0182060437168641C0818B1781A
:10E3D000E4B2A14200D100240178022902D003292D
:10E3E0001BD113E0154A40682421926841438F18DD
:10E3F000397D002911D000F097FD002038750CE020
:10E4000024277843C0180275006A03E00B490022F4
:10E410008B680869471CF3D108617078A042D1D19C
:10E4200028466D1EEDB20028C6D104480169009847
:10E43000814201D00120F8BD0020F8BD402000201D
:10E44000F8B50446384800270169009146785CE039
:10E450003548F100C2688D1851E0601C07D0324A7F
:10E4600024209268604321468018046A24E02878BA
:10E47000182141436A68401CC0B252182870A9781C
:10E48000884200D12F70284B516824209B68484354
:10E49000C0181378012B34D1037D002B31D1936840
:10E4A0008360D368C360136903615269C2611E4A05
:10E4B0005279002A00D087601B4B82685B699646C0
:10E4C0009C46D31A1A02194B120A9A4202D2C36806
:10E4D000D21808E0724663469A1A1202C368120AFA
:10E4E000934202D99A1A426000E047608760012295
:10E4F000C7600275921E0262084600F0E3FC601CD1
:10E50000ABD1287869788842A7D13046761EF6B21A
:10E5100000289DD1044801690098814201D0012062
:10E52000F8BD0020F8BD000040200020FFFF7F0064
:10E5300008B53C48C169B12943D000243A480F21AD
:10E5400040698903884204D0002211461046FEF734
:10E550001FF901200007006901218902884204D0C7
:10E56000002211461046FEF713F930480090304B58
:10E57000052203210020FEF733FA002803D00022F1
:10E580001146FEF705F9FEF733FEFEF767FD01259C
:10E5900000281AD0FEF771FD002803D00022114692
:10E5A000FEF7F6F820466840FEF7C6FC00F06EFB6A
:10E5B000FEF78AFD00280ED000221146FEF7E8F88B
:10E5C00009E001240021C161B8E720466840FEF758
:10E5D000B3FC00F05BFB03252D03002C04D1A868DD
:10E5E000FEF7F2FC002807D1FEF782FD002803D0D9
:10E5F00000221146FEF7CCF8A868FEF7E5FC0028DB
:10E6000006D0FEF72BFD002802D1A868FEF7FCFC1F
:10E61000BFF34F8F08490748C860BFF34F8F00BF53
:10E62000FDE700000005004000100010C9C903000C
:10E63000E02000200400FA0500ED00E070B505467A
:10E6400000790E46801C1446C0B21178821C8A18CC
:10E650001F2A01D90C2070BD0A46491C2170401C9C
:10E66000B0542078FF22411C217032542078811947
:10E67000288800F0D1FC21784018C0B22070AA8808
:10E68000002A09D0A968002908D08019FDF7A0FD4B
:10E690002078297940182070002070BD072070BDB7
:10E6A000F8B514780746A01C15460E461F2803D857
:10E6B0007878801C1F2801D90C20F8BD1D20001B74
:10E6C00080B26946864608803019801C7DDF0028AC
:10E6D000F3D13878022805D168460088704501D802
:10E6E000092107E078780821002801D0704501D978
:10E6F00068460088421C3255641CE2B2B154297845
:10E70000801C081828700020F8BD000031B5054CA9
:10E7100004E0401E00902046FDF7EEFC0098002823
:10E72000F7D138BDE703000008280CD004DC00282E
:10E7300007D006280FD108E00B280AD00C280AD1F0
:10E7400005E0012070470220704703207047042035
:10E750007047042901D0062070470520704700004B
:10E7600070B5544C01880022E588A6B017290AD05C
:10E770001DDC11293ED008DC02297BD0102902D1F2
:10E780008088E080A27026B070BD4B4C26461836BB
:10E79000132948D01429F6D1C289638D00219A42E9
:10E7A00000D1314600238088E21D82DF1BE0512921
:10E7B00064D00EDC18297AD01929E4D18079002898
:10E7C000E1D1A270E068401EE06047D0FDF722FF73
:10E7D000D9E752296BD05529D5D180790028D2D1DB
:10E7E0001321284676DF0028CDD000221146FDF700
:10E7F000CFFFC8E78020694688823220E06001238D
:10E8000005AA06A92846AADF002803D0002211463F
:10E81000FDF7BEFF2078002801D1FDF7FBFE0020A8
:10E82000C043E080AFE7072223490FA8FDF7D0FCE3
:10E830001022E11D0BA8FDF7CBFC1C22314611A8CC
:10E84000FDF7C6FC0BA809901A4A11A81C320890C3
:10E8500005AB852128467FDFC5E70BE01422174969
:10E8600005A8FDF7B5FC099805AC00900FCCFEF7A4
:10E870004BFC88E70021284667DFB4E7817900294F
:10E8800081D0807A042803D0062801D005289FD1A2
:10E8900002290AD0012069460871FF2083300881CF
:10E8A00001A92846A8DF9EE701E00220F3E700F077
:10E8B000FDF998E7A02000209426002084F20300B0
:10E8C000F0B58BB004460227684607730026099608
:10E8D0008784C68408A80A900D46A18A208809AAC0
:10E8E000A5DF002804D0E16A00291AD0884718E083
:10E8F0006846008CC007C00F13D068460682208887
:10E9000003A9A8DF002813D1A97E28461B300122C5
:10E910000B00FDF797FD09460F1C2227292C442EDA
:10E920004600FF20FE3069460882208803A9A8DF40
:10E930000BB0F0BD6B461E700BE006221EE0694670
:10E940000A71029027E0204690470020F0E76B46CE
:10E950001A702B8B022BF2D2EFE7684607706946DC
:10E96000A26AF0E7032000E00420694612E00520D7
:10E97000FBE7298B032905D2032208212046FEF755
:10E980009DFAD5E7417802780802104369468880ED
:10E9900003D006200870A26AD5E70720FAE709200D
:10E9A000E3E70322EAE7000070B50D780446012092
:10E9B000344A2B00FDF746FD0A2B3043061320573F
:10E9C0005C466012FEF79AFF0421FFF7ADFE024697
:10E9D00004212EE000221146FDF7DAFE70BDFFF79C
:10E9E00079FA002803D000221146FDF7D1FEFEF788
:10E9F0006DFF002808D170BDFFF76CFA002803D026
:10EA000000221146FDF7C4FEFFF7EEF870BD10714D
:10EA100088680078507170BD022010718868007895
:10EA20000128F8D1FEF7D0FF0221FFF77DFE024654
:10EA300002212046FEF742FA0028CBD170BD032008
:10EA4000107170BD12792046012A06D0022A07D023
:10EA5000032AF6D1FDF732FE70BD00F0E7F970BD74
:10EA6000FFF7FCFB70BD507088881081508170BD2D
:10EA700000205070108170BD20461169FEF720F90A
:10EA8000DAE70000A020002010B507480378012B2A
:10EA900002D1022900D10170100003D000221146DA
:10EAA000FDF776FE10BD00006420002070B5134C09
:10EAB0001E4660781546022902D0042916D108E0C6
:10EAC000052813D1A369002B10D032462946042013
:10EAD0000BE002280AD10A48406880470320607092
:10EAE000A369002B02D0324629469847280003D05C
:10EAF00000221146FDF74CFE70BD00007020002082
:10EB00003426002008B50B4600220146042000925E
:10EB1000FEF706FC08BD000070B500240C4E0D4841
:10EB2000746004704470847025462846FEF7E8FB44
:10EB30006D1C0A2DF9D30649346000200831746039
:10EB40008200401C8C500228FAD3002070BD0000C7
:10EB500020200020D424002010B5084B1A68022A77
:10EB600009D00A601C469100083400686050521CAD
:10EB700000201A6010BD042010BD000020200020DD
:10EB8000F8B507461D4616460C460846FFF708FC32
:10EB900000280CD06019FFF703FC002807D033468B
:10EBA0002246394602200095FEF7BAFBF8BD102038
:10EBB000F8BD0000F8B5224C0022A17801293ED111
:10EBC0000023A37006462146087818270546784397
:10EBD0004118022E03D0032E31D10D202CE019480C
:10EBE0004668761C46608968B6028E4214D343603C
:10EBF0006078401E6070681CC0B220700A2801D383
:10EC00000A3820701820684301191046091DFDF7C5
:10EC1000CDFD2846FEF774FB607800280FD0A07861
:10EC200000280CD1FEF738FB002808D0112806D0A8
:10EC30002178182251430919091DFDF7B7FDF8BDC8
:10EC4000D42400202020002070B501240B4960044A
:10EC500008600B4940108860094940398860094DB7
:10EC60006C602F20FDF758FAAC60074D00242F2070
:10EC70006C61FDF751FA2C7170BD000080E100E07D
:10EC800040130140001001404020002010B5064A0A
:10EC900014210820FDF74EFE002803D00022114663
:10ECA000FDF776FD10BD00006823002070B5154CFF
:10ECB000154DE088A84201D1082070BDE1780029F7
:10ECC0001AD0012308221149A9DF0028F5D1022317
:10ECD00000221146E088A9DF0028EED12A460C2147
:10ECE000E088A7DF0A49884204D0082802D0891C9E
:10ECF0008842E2D1002070BD00231A461946A9DFE0
:10ED000070BD0000A0200020FFFF0000C8260020EA
:10ED100002300000F7B582B002981446806A0F46B0
:10ED2000002833D0029800252030009028E0029877
:10ED3000816A0C2068430E18217830794A1C2270B1
:10ED4000C01C785420781622411C21703A54207837
:10ED5000C119308800F060F921784018C0B22070E5
:10ED6000B288002A09D0B16800290FD0C019FDF778
:10ED70002FFA20783179401820706D1C0098EDB280
:10ED8000007BA842D3D8002005B0F0BD0720FBE7E8
:10ED900010B500221146FDF7FBFC10BD10B508466A
:10EDA0001146C046C04610BD002803D00249C860C5
:10EDB000002070470E207047C820002010B50029A1
:10EDC00004D0002211461046FDF7E2FCFFF776FA68
:10EDD00010BD000010B50021024A0846FDF71AFDDB
:10EDE00010BD0000BDED030070B5002901D08C07F7
:10EDF00001D0072070BD064C0125A1606280054945
:10EE0000636010DF0028F5D1257016202EDF70BD5D
:10EE1000C82000209DED0300002803D002490861AE
:10EE2000002070470E207047C820002030B50546EE
:10EE300087B00020009001900290039019486A4624
:10EE400040791070184A10689268049068460692DB
:10EE5000059008790C2807D003221CE000221146F7
:10EE6000FDF796FC07B030BD8C68204600F0D9F85D
:10EE70000190201D00F0D5F802902046083000F0E7
:10EE8000D0F8039004A8FEF78DFF0028EAD00121F6
:10EE9000FFF74AFC024601212846FEF70FF800283A
:10EEA000DCD1DFE7A020002078F2030010B5FFF7E7
:10EEB00081FE10BD01200249000508607047000076
:10EEC00000E200E0F0B5174F2421BC6841430D1962
:10EED00039694A1C09D024224A4316196B687268A2
:10EEE000934204D8D21A726029623861F0BD0A4692
:10EEF00002E00A46396A9B1B4E1C0BD024264E4367
:10EF000037197E689E42F4D324264E43361977681B
:10EF1000FF1A77606B60296224214A431119086245
:10EF2000F0BD00004020002070B5194C2269A56892
:10EF30001346114606E0814207D00A462426714353
:10EF40004919096A4E1CF6D170BD002EFCD08A42C8
:10EF50000CD1242043435819006A2061401C05D17C
:10EF60000C4B0120986000236361607124204143B1
:10EF70004819242341685A43006A52191062421CFE
:10EF8000E2D024225043401942685118416070BDBC
:10EF90004020002000100140F8B51D4C2569681C78
:10EFA00035D01C48002640686169401A07023F0AB4
:10EFB00019E024204543A0682A185068B84214D8A4
:10EFC000A3693F1A8619156A002B09D0D169906987
:10EFD0009847002807D000221146FDF7D9FB02E030
:10EFE0009169D0698847681CE3D1A178E0788142B3
:10EFF00006D1401CC0B2E070022801D10020E070B0
:10F0000003490006800D1C310E50FFF753FFF8BD79
:10F0100040200020001501400870000A48700220BE
:10F02000704710B50446FDF704F90002E178000AC4
:10F030000906084310BD0870020A4A70020C8A7063
:10F04000000EC8700420704738B51549154A488825
:10F0500090420FD04A78144C521CD2B24A70237B93
:10F06000934208D3083175DF002803D0A169002935
:10F0700000D0884738BD00254D70217C002907D07D
:10F080003B2176DF002803D0A169002900D0884702
:10F0900061690029EED068460570884738BD0000D8
:10F0A00000200020FFFF0000B8240020124948681B
:10F0B000C005C00D19D0103840B2002807DA020789
:10F0C000120F083A920892005118C96904E08108A9
:10F0D0000A4A8900891809688007C00EC1400806DD
:10F0E000800F012803D0032803D00220704700209E
:10F0F000704701207047000000ED00E000E400E0F0
:10F1000042788378521C934200D1002203789342C4
:10F1100001D1002070470A604168407818225043AE
:10F1200008187047F8B51546069C1E460746022289
:10F13000009400F00AF8002806D133461022294630
:10F140003846009400F001F8F8BDFFB583B00746DB
:10F1500000200C9C8646267805463AE07868A9008F
:10F1600041180A88684682804988C1800022694621
:10F1700001A865DF002810D1684601780598814212
:10F1800026D17046002801D0002200E0022220781B
:10F19000891841181F2902D90C2007B0F0BD71460B
:10F1A000002908D1401CC0B2411C069B049A217062
:10F1B0001A5401208646217806980A18694601A843
:10F1C00065DF0028E9D16946207809784018207069
:10F1D0006D1C3888A842C1DC7046002804D0207815
:10F1E0000699801B401E88550020D6E710B5094CB3
:10F1F00048DF002803D000221146FDF7C9FAFDF7C9
:10F2000089FB2078022803D0032801D00428EFD1FD
:10F2100010BD00006420002002000000000000007B
:10F22000000000000000000023D1BCEA5F78231535
:10F23000DEEF12120000000089EA03000000000067
:10F2400000000000020000000000000000000000BC
:10F2500000000000000000000400000000000000AA
:10F26000000000000000000000000000ADEA030004
:10F27000000000000000000003000000000000008B
:10F280000000000005000000000000000000000079
:10F290000000000000000000B8F203000020002081
:10F2A000E00000005EC4030098F30300E0200020AB
:10F2B000300F00006EC403000000000000000000DA
:10F2C000000000000000000000000000000000003E
:10F2D000000000000000000000000000000000002E
:10F2E000000000000000000000000000000000001E
:10F2F000000000000000000000000000000000000E
:10F3000000000000000000000000000000000000FD
:10F3100000000000000000000000000000000000ED
:10F3200000000000000000000000000000000000DD
:10F3300000000000000000000000000000000000CD
:10F3400000000000000000000000000000000000BD
:10F350000000000000000000000000000000FFFFAF
:10F36000000000003200000000000000000000006B
:10F37000000000000000000000000000000000008D
:10F38000000000000000000000000000000000007D
:08F39000000000000024F4005D
:020000041000EA
:0410140000C0030015
:040000050003C0C173
:00000001FF
